{
  "abi": [
    {
      "anonymous": false,
      "inputs": [
        {
          "indexed": true,
          "internalType": "address",
          "name": "user",
          "type": "address"
        },
        {
          "indexed": false,
          "internalType": "uint256",
          "name": "old_nonce",
          "type": "uint256"
        }
      ],
      "name": "CancelOrder",
      "type": "event"
    },
    {
      "anonymous": false,
      "inputs": [
        {
          "indexed": true,
          "internalType": "address",
          "name": "userA",
          "type": "address"
        },
        {
          "indexed": true,
          "internalType": "address",
          "name": "userB",
          "type": "address"
        },
        {
          "indexed": false,
          "internalType": "address",
          "name": "tokenA",
          "type": "address"
        },
        {
          "indexed": false,
          "internalType": "address",
          "name": "tokenB",
          "type": "address"
        },
        {
          "indexed": false,
          "internalType": "uint256",
          "name": "amountA",
          "type": "uint256"
        },
        {
          "indexed": false,
          "internalType": "uint256",
          "name": "amountB",
          "type": "uint256"
        }
      ],
      "name": "Match",
      "type": "event"
    },
    {
      "inputs": [],
      "name": "cancelOrder",
      "outputs": [],
      "stateMutability": "nonpayable",
      "type": "function"
    },
    {
      "inputs": [
        {
          "components": [
            {
              "internalType": "address",
              "name": "user",
              "type": "address"
            },
            {
              "internalType": "address",
              "name": "tokenA",
              "type": "address"
            },
            {
              "internalType": "address",
              "name": "tokenB",
              "type": "address"
            },
            {
              "internalType": "uint256",
              "name": "minAmountA",
              "type": "uint256"
            },
            {
              "internalType": "uint256",
              "name": "maxAmountA",
              "type": "uint256"
            },
            {
              "internalType": "uint256",
              "name": "priceX96",
              "type": "uint256"
            },
            {
              "internalType": "uint256",
              "name": "maxSlippage",
              "type": "uint256"
            },
            {
              "internalType": "uint256",
              "name": "nonce",
              "type": "uint256"
            },
            {
              "internalType": "uint256",
              "name": "expiration",
              "type": "uint256"
            },
            {
              "internalType": "uint256",
              "name": "code",
              "type": "uint256"
            },
            {
              "internalType": "bytes",
              "name": "signature",
              "type": "bytes"
            }
          ],
          "internalType": "struct OrderBookExchange.Order",
          "name": "order",
          "type": "tuple"
        }
      ],
      "name": "checkSignature",
      "outputs": [],
      "stateMutability": "view",
      "type": "function"
    },
    {
      "inputs": [
        {
          "components": [
            {
              "internalType": "address",
              "name": "user",
              "type": "address"
            },
            {
              "internalType": "address",
              "name": "tokenA",
              "type": "address"
            },
            {
              "internalType": "address",
              "name": "tokenB",
              "type": "address"
            },
            {
              "internalType": "uint256",
              "name": "minAmountA",
              "type": "uint256"
            },
            {
              "internalType": "uint256",
              "name": "maxAmountA",
              "type": "uint256"
            },
            {
              "internalType": "uint256",
              "name": "priceX96",
              "type": "uint256"
            },
            {
              "internalType": "uint256",
              "name": "maxSlippage",
              "type": "uint256"
            },
            {
              "internalType": "uint256",
              "name": "nonce",
              "type": "uint256"
            },
            {
              "internalType": "uint256",
              "name": "expiration",
              "type": "uint256"
            },
            {
              "internalType": "uint256",
              "name": "code",
              "type": "uint256"
            },
            {
              "internalType": "bytes",
              "name": "signature",
              "type": "bytes"
            }
          ],
          "internalType": "struct OrderBookExchange.Order",
          "name": "orderA",
          "type": "tuple"
        },
        {
          "components": [
            {
              "internalType": "address",
              "name": "user",
              "type": "address"
            },
            {
              "internalType": "address",
              "name": "tokenA",
              "type": "address"
            },
            {
              "internalType": "address",
              "name": "tokenB",
              "type": "address"
            },
            {
              "internalType": "uint256",
              "name": "minAmountA",
              "type": "uint256"
            },
            {
              "internalType": "uint256",
              "name": "maxAmountA",
              "type": "uint256"
            },
            {
              "internalType": "uint256",
              "name": "priceX96",
              "type": "uint256"
            },
            {
              "internalType": "uint256",
              "name": "maxSlippage",
              "type": "uint256"
            },
            {
              "internalType": "uint256",
              "name": "nonce",
              "type": "uint256"
            },
            {
              "internalType": "uint256",
              "name": "expiration",
              "type": "uint256"
            },
            {
              "internalType": "uint256",
              "name": "code",
              "type": "uint256"
            },
            {
              "internalType": "bytes",
              "name": "signature",
              "type": "bytes"
            }
          ],
          "internalType": "struct OrderBookExchange.Order",
          "name": "orderB",
          "type": "tuple"
        },
        {
          "internalType": "uint256",
          "name": "amountA",
          "type": "uint256"
        },
        {
          "internalType": "uint256",
          "name": "amountB",
          "type": "uint256"
        }
      ],
      "name": "executeTrade",
      "outputs": [],
      "stateMutability": "nonpayable",
      "type": "function"
    },
    {
      "inputs": [
        {
          "internalType": "address",
          "name": "",
          "type": "address"
        }
      ],
      "name": "nonces",
      "outputs": [
        {
          "internalType": "uint256",
          "name": "",
          "type": "uint256"
        }
      ],
      "stateMutability": "view",
      "type": "function"
    },
    {
      "inputs": [
        {
          "internalType": "bytes",
          "name": "sig",
          "type": "bytes"
        }
      ],
      "name": "splitSignature",
      "outputs": [
        {
          "internalType": "bytes32",
          "name": "r",
          "type": "bytes32"
        },
        {
          "internalType": "bytes32",
          "name": "s",
          "type": "bytes32"
        },
        {
          "internalType": "uint8",
          "name": "v",
          "type": "uint8"
        }
      ],
      "stateMutability": "pure",
      "type": "function"
    }
  ],
  "bytecode": {
    "object": "0x608060405234801561001057600080fd5b50610f95806100206000396000f3fe608060405234801561001057600080fd5b50600436106100575760003560e01c80636a8165481461005c5780637ecebe0014610066578063a7bb580314610099578063acf5b66f146100ca578063ae8ea7bf146100dd575b600080fd5b6100646100f0565b005b610086610074366004610bdc565b60006020819052908152604090205481565b6040519081526020015b60405180910390f35b6100ac6100a7366004610ccb565b610159565b60408051938452602084019290925260ff1690820152606001610090565b6100646100d8366004610dc8565b6101d2565b6100646100eb366004610e3c565b6103f7565b33600081815260208181526040918290205491519182527fc0e68d6b69f741c21e955cad2ae4d505b6f6735c7e7b278251b3f6283a5f07eb910160405180910390a2336000908152602081905260408120805460019290610152908490610e87565b9091555050565b600080600083516041146101b45760405162461bcd60e51b815260206004820152601860248201527f696e76616c6964207369676e6174757265206c656e677468000000000000000060448201526064015b60405180910390fd5b50505060208101516040820151606090920151909260009190911a90565b825184516001600160a01b0391821691160361021c5760405162461bcd60e51b815260206004820152600960248201526829b0b6b2903ab9b2b960b91b60448201526064016101ab565b82604001516001600160a01b031684602001516001600160a01b0316146102765760405162461bcd60e51b815260206004820152600e60248201526d0a8ded6cadc40dad2e6dac2e8c6d60931b60448201526064016101ab565b82602001516001600160a01b031684604001516001600160a01b0316146102d05760405162461bcd60e51b815260206004820152600e60248201526d0a8ded6cadc40dad2e6dac2e8c6d60931b60448201526064016101ab565b6102d9846103f7565b6102e2836103f7565b6102ed8483836106d8565b506102f98382846106d8565b5060e084015161030a906001610e87565b84516001600160a01b031660009081526020819052604090205560e0830151610334906001610e87565b83516001600160a01b0390811660009081526020818152604090912092909255855185519287015161036993921691856108f9565b825184516020850151610388926001600160a01b0390911691846108f9565b8251845160208087015181870151604080516001600160a01b03938416815291831693820193909352808301879052606081018690529151938116939216917fb1a4ba8a21536be6da43716c6cdef736c8cae081c1c7c420f94a9cea41cd023f9181900360800190a350505050565b80610100015142111561043c5760405162461bcd60e51b815260206004820152600d60248201526c13dc99195c88195e1c1a5c9959609a1b60448201526064016101ab565b80516001600160a01b031660009081526020819052604090205460e0820151146104985760405162461bcd60e51b815260206004820152600d60248201526c496e76616c6964206e6f6e636560981b60448201526064016101ab565b80516020808301516040808501516060860151608087015160a088015160c089015160e08a01516101008b01516101208c0151975160009b61053d9b909a99910160609a8b1b6bffffffffffffffffffffffff199081168252998b1b8a1660148201529790991b9097166028870152603c860194909452605c850192909252607c840152609c83015260bc82015260dc81019190915260fc81019190915261011c0190565b60405160208183030381529060405280519060200120905060008160405160200161059491907f19457468657265756d205369676e6564204d6573736167653a0a3332000000008152601c810191909152603c0190565b60405160208183030381529060405280519060200120905060008060006105bf866101400151610159565b925092509250600060018583868660405160008152602001604052604051610603949392919093845260ff9290921660208401526040830152606082015260800190565b6020604051602081039080840390855afa158015610625573d6000803e3d6000fd5b50505060206040510351905086600001516001600160a01b0316816001600160a01b0316146106855760405162461bcd60e51b815260206004820152600c60248201526b2bb937b7339039b4b3b732b960a11b60448201526064016101ab565b6001600160a01b0381166106cf5760405162461bcd60e51b8152602060048201526011602482015270496e76616c6964207369676e617475726560781b60448201526064016101ab565b50505050505050565b600060018461012001511461072f5760405162461bcd60e51b815260206004820152601b60248201527f496e76616c696420696d706c656d656e746174696f6e20636f6465000000000060448201526064016101ab565b83516001600160a01b031660009081526020819052604090205460e08501511461078b5760405162461bcd60e51b815260206004820152600d60248201526c496e76616c6964206e6f6e636560981b60448201526064016101ab565b8361010001514311156107d05760405162461bcd60e51b815260206004820152600d60248201526c13dc99195c88195e1c1a5c9959609a1b60448201526064016101ab565b83606001518310156108155760405162461bcd60e51b815260206004820152600e60248201526d416d6f756e7420746f6f206c6f7760901b60448201526064016101ab565b836080015183111561085b5760405162461bcd60e51b815260206004820152600f60248201526e082dadeeadce840e8dede40d0d2ced608b1b60448201526064016101ab565b61086782612710610ea0565b60c085015161087890612710610eb7565b60608660a001518661088a9190610ea0565b61089592911c610ea0565b11156108ef5760405162461bcd60e51b8152602060048201526024808201527f50726963652072656a65637465642028746f6f206d75636820736c697070616760448201526365203f2960e01b60648201526084016101ab565b5060019392505050565b604080516001600160a01b0385811660248301528416604482015260648082018490528251808303909101815260849091019091526020810180516001600160e01b03166323b872dd60e01b179052610953908590610959565b50505050565b60006109ae826040518060400160405280602081526020017f5361666545524332303a206c6f772d6c6576656c2063616c6c206661696c6564815250856001600160a01b0316610a309092919063ffffffff16565b805190915015610a2b57808060200190518101906109cc9190610eca565b610a2b5760405162461bcd60e51b815260206004820152602a60248201527f5361666545524332303a204552433230206f7065726174696f6e20646964206e6044820152691bdd081cdd58d8d9595960b21b60648201526084016101ab565b505050565b6060610a3f8484600085610a47565b949350505050565b606082471015610aa85760405162461bcd60e51b815260206004820152602660248201527f416464726573733a20696e73756666696369656e742062616c616e636520666f6044820152651c8818d85b1b60d21b60648201526084016101ab565b600080866001600160a01b03168587604051610ac49190610f10565b60006040518083038185875af1925050503d8060008114610b01576040519150601f19603f3d011682016040523d82523d6000602084013e610b06565b606091505b5091509150610b1787838387610b22565b979650505050505050565b60608315610b91578251600003610b8a576001600160a01b0385163b610b8a5760405162461bcd60e51b815260206004820152601d60248201527f416464726573733a2063616c6c20746f206e6f6e2d636f6e747261637400000060448201526064016101ab565b5081610a3f565b610a3f8383815115610ba65781518083602001fd5b8060405162461bcd60e51b81526004016101ab9190610f2c565b80356001600160a01b0381168114610bd757600080fd5b919050565b600060208284031215610bee57600080fd5b610bf782610bc0565b9392505050565b634e487b7160e01b600052604160045260246000fd5b604051610160810167ffffffffffffffff81118282101715610c3857610c38610bfe565b60405290565b600082601f830112610c4f57600080fd5b813567ffffffffffffffff80821115610c6a57610c6a610bfe565b604051601f8301601f19908116603f01168101908282118183101715610c9257610c92610bfe565b81604052838152866020858801011115610cab57600080fd5b836020870160208301376000602085830101528094505050505092915050565b600060208284031215610cdd57600080fd5b813567ffffffffffffffff811115610cf457600080fd5b610a3f84828501610c3e565b60006101608284031215610d1357600080fd5b610d1b610c14565b9050610d2682610bc0565b8152610d3460208301610bc0565b6020820152610d4560408301610bc0565b6040820152606082013560608201526080820135608082015260a082013560a082015260c082013560c082015260e082013560e08201526101008083013581830152506101208083013581830152506101408083013567ffffffffffffffff811115610db057600080fd5b610dbc85828601610c3e565b82840152505092915050565b60008060008060808587031215610dde57600080fd5b843567ffffffffffffffff80821115610df657600080fd5b610e0288838901610d00565b95506020870135915080821115610e1857600080fd5b50610e2587828801610d00565b949794965050505060408301359260600135919050565b600060208284031215610e4e57600080fd5b813567ffffffffffffffff811115610e6557600080fd5b610a3f84828501610d00565b634e487b7160e01b600052601160045260246000fd5b80820180821115610e9a57610e9a610e71565b92915050565b8082028115828204841417610e9a57610e9a610e71565b81810381811115610e9a57610e9a610e71565b600060208284031215610edc57600080fd5b81518015158114610bf757600080fd5b60005b83811015610f07578181015183820152602001610eef565b50506000910152565b60008251610f22818460208701610eec565b9190910192915050565b6020815260008251806020840152610f4b816040850160208701610eec565b601f01601f1916919091016040019291505056fea2646970667358221220135d3600bbe02e7b36768572de528933c8789386421c50827933a7c59e46597b64736f6c63430008110033",
    "linkReferences": {}
  },
  "methodIdentifiers": {
    "cancelOrder()": "6a816548",
    "checkSignature((address,address,address,uint256,uint256,uint256,uint256,uint256,uint256,uint256,bytes))": "ae8ea7bf",
    "executeTrade((address,address,address,uint256,uint256,uint256,uint256,uint256,uint256,uint256,bytes),(address,address,address,uint256,uint256,uint256,uint256,uint256,uint256,uint256,bytes),uint256,uint256)": "acf5b66f",
    "nonces(address)": "7ecebe00",
    "splitSignature(bytes)": "a7bb5803"
  },
  "id": 28
}